:1000000020140020691F0000796F0000551F0000B8
:10001000551F0000551F0000551F00000000000084
:10002000000000000000000000000000711D000042
:10003000551F0000000000001D1D0000551F00009E
:10004000D51C0000D51C0000D51C0000D51C0000EC
:10005000D51C0000D51C0000D51C0000D51C0000DC
:10006000D51C0000D51C0000D51C0000D51C0000CC
:10007000D51C0000D51C0000D51C0000D51C0000BC
:10008000D51C0000D51C0000D51C0000D51C0000AC
:10009000D51C0000D51C0000D51C0000D51C00009C
:1000A000D51C0000D51C0000D51C0000D51C00008C
:1000B000D51C0000D51C0000D51C0000D51C00007C
:1000C000D51C0000D51C0000D51C0000D51C00006C
:1000D000D51C0000D51C0000D51C0000D51C00005C
:1000E000D51C0000D51C0000D51C0000D51C00004C
:1000F000D51C0000D51C0000D51C0000D51C00003C
:1001000053B94AB9002908BF00281CBF4FF0FF317E
:100110004FF0FF3000F06CB9ADF1080C6DE904CE82
:1001200000F006F8DDF804E0DDE9022304B07047D2
:100130002DE9F047089E0D4604468E46002B40F000
:1001400082808A42174646D9B2FA82F24AB1C2F197
:10015000200105FA02F320FA01F1974041EA030E6B
:1001600094404FEA1748230CBEFBF8FCB9B208FBD9
:100170001CEE43EA0E430CFB01F098420AD9FB182F
:100180000CF1FF3580F01681984240F21381ACF1FA
:10019000020C3B441B1AA4B2B3FBF8F008FB10336B
:1001A00044EA034400FB01F1A14209D93C1900F1E2
:1001B000FF3380F00181A14240F2FE8002383C44CE
:1001C000641A40EA0C4000211EB1D4400023C6E965
:1001D0000043BDE8F08702B9FFDEB2FA82F2002ADE
:1001E0004FD1CB1B4FEA174E1FFA87F80121B3FB03
:1001F000FEFC250C0EFB1C3345EA034508FB0CF303
:10020000AB4207D97D190CF1FF3002D2AB4200F2AC
:10021000E7808446ED1AA3B2B5FBFEF00EFB105545
:1002200043EA054408FB00F8A04507D93C1900F152
:10023000FF3302D2A04500F2D7801846A4EB080491
:1002400040EA0C40C0E78B4208D9002E00F0AF8096
:100250000021C6E900050846BDE8F087B3FA83F13E
:1002600000294BD1AB4202D3824200F2B780841AFC
:1002700065EB030301209E46002EAAD0C6E9004E7E
:10028000A7E7C2F1200C01FA02F3974020FA0CF024
:100290004FEA174E21FA0CFC1843BCFBFEF1050C8B
:1002A0000EFB11CC1FFA87F845EA0C4501FB08F359
:1002B000AB4204FA02F409D97D1901F1FF3C80F048
:1002C0008B80AB4240F2888002393D44EB1A85B204
:1002D000B3FBFEF00EFB103345EA034500FB08F3C9
:1002E000AB4207D97D1900F1FF3C71D2AB426FD907
:1002F00002383D44EB1A40EA014178E7C1F1200C95
:100300008B4022FA0CF71F4320FA0CF405FA01F394
:100310004FEA174E25FA0CF51C43230CB5FBFEF9EA
:100320001FFA87F80EFB195543EA054509FB08FA41
:10033000AA4502FA01F200FA01F308D97D1909F180
:10034000FF3047D2AA4545D9A9F102093D44A5EBA2
:100350000A05A4B2B5FBFEF00EFB105544EA0544B5
:1003600000FB08F8A04507D93C1900F1FF352DD254
:10037000A0452BD902383C4440EA0940A4EB0804CC
:10038000A0FB02894C45C6464D4619D316D05EB136
:10039000B3EB0E0264EB050404FA0CFCCA404CEA11
:1003A0000202CC40C6E900240021BDE8F0873146B6
:1003B00030460EE7AC46EDE6184601E74345E6D287
:1003C000B8EB020E69EB07050138E0E72846D3E7F2
:1003D00060468FE78146BAE7614677E708464BE714
:1003E000ACF1020C3D4415E702383C4426E700BF5F
:1003F000704700BF08B506F030FF0146034806F01D
:1004000095FD034B01221A6008BD00BF8C780000E7
:100410003403002008B506F020FF0146034806F02B
:1004200085FD034B01221A6008BD00BFA1780000C2
:100430003803002008B506F010FF0146034806F017
:1004400075FD034B01221A6008BD00BFB67800009D
:100450003C03002008B506F000FF0146034806F003
:1004600065FD034B01221A6008BD00BFCB78000078
:100470004003002008B506F0F0FE0146034806F0F0
:1004800055FD034B01221A6008BD00BFE078000053
:100490004403002008B506F0E0FE0146034806F0DC
:1004A00045FD034B01221A6008BD00BFF57800002E
:1004B0004803002008B506F0D0FE0146034806F0C8
:1004C00035FD034B01221A6008BD00BF0A79000008
:1004D0004C03002008B506F0C0FE0146034806F0B4
:1004E00025FD034B01221A6008BD00BF1F790000E3
:1004F000500300202DE9F04705460E46144612F43D
:10050000406FD0E901A9D0F8108010D093050ED427
:1005100019491A4A1A484FF43B7306F007FD194867
:1005200006F004FD15484FF43B7106F02BFCDAF899
:1005300000300127B7401F4224F480540ED11249E5
:100540000E4A0F4840F2FD2306F0F0FC0F4806F07B
:10055000EDFC0A4840F2FD2106F014FCD8F800300A
:1005600023EA0707C8F80070D9F800302246314660
:100570002846BDE8F04718475E790000347900004E
:10058000A3790000C0790000FB790000397A0000EF
:100590002DE9F04104460D46436887681B68D0F892
:1005A000108001268E401E420ED11049104A11487B
:1005B00040F29D2306F0BAFC0F4806F0B7FC0C4849
:1005C00040F29D2106F0DEFBD8F800301E42BE69E5
:1005D00029462046B44618BF4FF40033BDE8F04129
:1005E00008BF4FF480234FF4A0326047FB7900002E
:1005F00034790000A3790000397A000010B5104C5E
:100600004FF4D0520D212068FFF774FF4FF4D05201
:100610000E212068FFF76EFF4FF4D0520F212068A3
:10062000FFF768FF102120684FF4D052FFF762FFF8
:10063000011E04DABDE81040024806F077BC10BD88
:10064000540300204B7A000010B5524C4FF48872CE
:100650000B212068FFF74EFF4FF488720C212068B1
:10066000FFF748FF4FF4887218212068FFF742FF18
:100670004FF4887219212068FFF73CFF4FF488720D
:1006800003212068FFF736FF4FF4887204212068A9
:10069000FFF730FF4FF488721C212068FFF72AFF14
:1006A0001D2120684FF48872FFF724FF011E04DA31
:1006B0003948BDE8104006F039BC0B212068FFF72F
:1006C00067FF0C212068FFF763FF18212068FFF700
:1006D0005FFF19212068FFF75BFF03212068FFF708
:1006E00057FF04212068FFF753FF1C212068FFF704
:1006F0004FFF1D212068FFF74BFF014608B1274837
:10070000D7E72749274B4B6020684FF400638B6085
:1007100006F030FB2449254B4B6020684FF4805392
:100720008B6006F027FB2249224B4B6020684FF07C
:1007300080738B6006F01EFB1F49204B4B602068C6
:100740004FF000738B6006F015FB1D491D4B4B608D
:10075000206808238B6006F00DFB1B491B4B4B6088
:10076000206810238B6006F005FB1949194B4B607C
:1007700020684FF080538B6006F0FCFA1649174B47
:1007800020684B60BDE810404FF000538B6006F0CE
:10079000F1BA00BF54030020777A00009E7A00006F
:1007A000D4020020F5030000E00200201504000040
:1007B000EC02002035040000F8020020550400007F
:1007C00004030020750400001003002095040000BD
:1007D0001C030020B504000028030020D5040000FD
:1007E0002DE9F3419B4803F0C3FE9B4B186028B9E9
:1007F0009A4802B0BDE8F04106F098BB9848994F7E
:10080000DFF8C88206F092FBFFF7F8FEFFF71CFF47
:1008100000243E463B68042BFCD8DFE813F00500BB
:1008200061007100D80000018F4B1A68012A0AD1BB
:1008300000220A341A6064228C4894FBF2F102FB15
:10084000114206F073FB8A4B1A68012A0AD1002272
:1008500014341A606422874894FBF2F102FB1142BF
:1008600006F064FB844B1A68012A0AD10022323454
:100870001A6064227F4894FBF2F102FB114206F0F9
:1008800055FB7E4B1A68012A0AD1002264341A6093
:100890006422764894FBF2F102FB114206F046FB1B
:1008A000774B1A68012A02BF326000221A60754B2A
:1008B0001A68012A01BF0222326000221A60724BBC
:1008C0001A68012A01BF0322326000221A606F4BAE
:1008D0001A68012A9ED10422326000221A6099E728
:1008E00064226B4894FBF2F102FB1142002406F0F3
:1008F0001DFB604834602246214606F017FB89E75D
:10090000644D2B689C422B6821DBE41A2B68962BE4
:1009100007D16422604894FBF2F102FB114206F019
:1009200005FB2A68642A06D194FBF2F15B4802FBBE
:10093000114206F0FBFA2B68322B45D1642258484D
:1009400094FBF2F102FB114206F0F0FA3CE0962B28
:1009500011D1642128682A6894FBF1F301FB134E3E
:1009600092FBF1FCCDF800E001FB1C2290FBF1F1C1
:100970004C4806F0DBFA2968642910D194FBF1F3A6
:1009800028682A6892FBF1FC01FB134E01FB1C2234
:10099000CDF800E090FBF1F1434806F0C7FA2B6870
:1009A000322B11D128682A68642194FBF1F301FBF2
:1009B000134C92FBF1F5CDF800C001FB152290FB22
:1009C000F1F13A4806F0B2FA0023336022E74046DC
:1009D00006F0ACFA2F4B1A68962A0AD164253448DF
:1009E0001D6006F0A3FA94FBF5F105FB11423148B6
:1009F000AAE71D68642D03D132222F481A60F0E760
:100A00001A68322A7FF406AF96222C481A6006F044
:100A10008DFA642294FBF2F102FB1142E7E74046B3
:100A200006F084FA1B4B1A68962A03D13222244816
:100A30001A60ECE71D68642D03D1962221481A60E4
:100A4000CFE71A68322A7FF4E5AE64251E481D60A0
:100A5000C7E700BFD57A000054030020DC7A00000D
:100A6000F67A0000D002002034030020137B00003F
:100A7000380300202C7B00003C03002040030020B2
:100A8000500300204C0300204403002048030020B2
:100A9000467B000000000020617B0000977B000087
:100AA000D67B00000E7C0000557C0000A57C000079
:100AB000EE7C0000637D0000817D0000F57D00007C
:100AC000687E0000DD7E0000517F00009B7A000000
:100AD0002DE9F04F91B08B46029092461C460025BE
:100AE0009AF8000008B928465EE325280AF10107B4
:100AF00007D0029B594698470028C0F2558301351C
:100B000010E2182200210AA806F071FA9AF80130C2
:100B1000252B78D000229446164696461046394634
:100B200017F8013B2B2B00F09D8000F29480202BC6
:100B300000F09B80232B00F09A8028B19DF83000B4
:100B400040F004008DF83000BEF1000F05D09DF894
:100B5000300040F008008DF830002EB19DF83000D4
:100B600040F010008DF83000BCF1000F05D09DF86A
:100B7000300040F020008DF830002AB19DF8302080
:100B800042F040028DF830209DF8302002F0440001
:100B9000442803D16FF386128DF830209DF8302061
:100BA0002A2B42F080028DF830207BD19DF8312035
:100BB00042F001024B1C8DF831201A782E2A9DF844
:100BC00031200CBF0121002161F341028DF8312059
:100BD00074D15A782A2A6AD0013300210A2618468D
:100BE00010F8012BA2F13007092F40F28E809DF8FA
:100BF00030200E91C2F3400040EAD17161F341020E
:100C00008DF830205AE00AF102078DF833309DF854
:100C10003130D90740F1498154F8049BB9F1000FF4
:100C200007DA9DF8302042F004028DF83020C9F137
:100C300000095A0740F1428154F8048BB8F1000FC3
:100C400080F241819DF831306FF341038DF83130EE
:100C50004FF0FF3837E12D2B0CD0302B7FF46DAFE8
:100C600001225CE74FF0010E59E7012657E74FF0EC
:100C7000010C54E7012052E70CFB0202303A3346E4
:100C80001E4616F8010BA0F13007092FF4D999423E
:100C900093D09DF830100D92D20F62F341018DF880
:100CA00030108AE70B4600224FF00A0CE8E79DF867
:100CB000312042F004028DF8312002331F4617F82C
:100CC000012B6C2A41D025D8682A2BD06A2A46D01D
:100CD0004C2A4CD01F4617F8012B9DF831308DF867
:100CE0003320782A00F2D980572A4DD8412A03D0E0
:100CF000453A022A00F2D1809DF83230042262F394
:100D000002038DF8323001239EE006FB01213039C9
:100D1000034664E7742A26D07A2ADBD19DF8313065
:100D200006220DE05A78682A9DF8312006D101216B
:100D300061F3C6028DF831209F1CCCE713460222D6
:100D400062F3C6038DF83130C5E75A786C2A9DF8F6
:100D5000312001D10421EBE713460322F0E79DF88F
:100D600031300522ECE79DF831300722E8E7BDF885
:100D7000303023F4F04323F0020343F4804343F084
:100D80000203ADF83030A6E7A2F15801202900F2A5
:100D9000848001A050F821F05D0E00009B0E000041
:100DA0009B0E00009B0E00009B0E00009B0E00009F
:100DB0009B0E00009B0E00009B0E0000F90C000033
:100DC0009B0E00005D0E00001D0E0000F90C0000DF
:100DD000F90C0000F90C00009B0E00001D0E000035
:100DE0009B0E00009B0E00009B0E00009B0E00005F
:100DF000650E00005D0E0000810E00009B0E0000DD
:100E00009B0E0000810E00009B0E00005D0E000096
:100E10009B0E00009B0E00005D0E00009DF832103E
:100E2000012003F0780360F30201402B8DF83210AB
:100E300002BF9DF8301041F001018DF83010632A97
:100E400031D1003B18BF01239DF83020C2F340018F
:100E50000B4363F341028DF83020D8E69DF8321041
:100E60000220DEE79DF8322003F07803A3F1400072
:100E7000032161F3020243428DF832204341E3E74C
:100E80009DF83220032113F0780F61F302028DF8F0
:100E9000322014BF01230023D6E79DF8303043F001
:100EA00001038DF830300023CEE79DF93020002A71
:100EB000B4BFDDF834904FF0FF39BAE69B077FF5F9
:100EC000C7AEDDF838809DF831200023CDE90D3321
:100ED0009DF8323003F00703012BC2F3C30236D171
:100EE000D31E042B20D8DFE803F00307071F1F00E1
:100EF00054F8040BC11704E0073424F00704F4E8A5
:100F00000201CDE90A019DF8303013F0030654D0F8
:100F100002983B465246594605F086FF0028C0F22B
:100F200043810544BA46DBE554F8040B012A4FEA35
:100F3000E071CDE90A0105D19DF828300A9300231C
:100F40000B93E0E7022ADED1BDF92800D2E7022B9D
:100F500023D1D31E042B13D8DFE803F0030A0A12AF
:100F6000120020680A900021231D0B911C46CAE73D
:100F7000073424F00703F3E80201CDE90A01F5E79D
:100F800054F8043B0A93012A4FF000030B93D3D08B
:100F9000022AB8D1BDF82830D0E7042B07D1073496
:100FA00024F00704F4E80201CDE90A01ABE7032BC2
:100FB00004BF54F8043B0A93A5E79DF83300782852
:100FC000B0D8622822D825283FF493AD5828A9D15B
:100FD0000DF126030093DDE90A0104AB0CAA05F02C
:100FE000D8FE8246B8F1000F0DF126000CDB9DF80B
:100FF0003020A0EB0A036FF3861298458DF830205D
:1010000002D9A8EB03030D9380463DE06338152811
:1010100088D801A151F820F099100000FD100000BF
:10102000250F0000250F0000250F0000250F0000F0
:10103000FD100000250F0000250F0000250F000007
:10104000250F00005B110000291100002D11000088
:10105000250F0000250F000071100000250F000073
:1010600029110000250F0000250F000029110000A4
:10107000B8F1000FDDF828A00ADB4146504605F024
:1010800096FF0AEB00080026BAF1000F0CD149E7E1
:10109000504605F085FFF4E70A9B8DF810300026D6
:1010A0000DF111080DF1100AA8EB0A0306B1013386
:1010B0009DF83220D0066BD5023352060D9948BFF9
:1010C0000E9A0B4448BF9B18B9F1000F79DD9DF8CB
:1010D0003020A9EB0309C2F380030393530770D4B4
:1010E000500664D546B1029B5946304698470028C1
:1010F0005ADB039B01351E46302359E01E0711D4ED
:1011000013F0100618BF2026DDE90A23002A73F128
:101110000001BFF65DAF524263EB4303CDE90A2302
:101120002D2655E72B26EFE7002651E70A9848B30E
:101130000DF1260300930CAA04AB002105F029FE53
:10114000BDF8323003F0EF0343F4F04343F01003F3
:101150008246ADF83230002644E70A9B072A3FF664
:10116000E1AEDFE802F00D04060D08080D0D1D705C
:10117000D8E61D80D6E62846E917C3E90001D1E686
:101180001D60CFE6DFF8C4800646A8F1050A8BE7AC
:10119000110748BF013390E7184603935946029B55
:1011A00098470028039B04DA11B0BDE8F08F202394
:1011B0004D444A46002AA5EB090109F1FF39EBDC51
:1011C0000D4636B1029B5946304698470028EBDB66
:1011D00001359DF83230D90601D41A0706D5029B95
:1011E0005946302098470028DEDB01359DF8323023
:1011F000DB0607D59DF83300029B59469847002827
:10120000D2DB01350D9E2E44731B002B16DC029899
:1012100043465246594605F007FE0028C4DB054404
:10122000A944A9EB0503002B7FF77CAE029B59462E
:10123000202098470028B7DB0135F2E7029B59468A
:10124000302098470028AFDB0135DDE7CA7F00007A
:1012500038B54468816004F00304032C054602D0CD
:101260002CB1002000E0006800236B6038BD054A07
:1012700005490648452305F059FE0248452105F079
:1012800081FDEEE7CB7F0000A1790000A37900008B
:10129000014805F0DDBB00BFC876000008B5D0B13D
:1012A0004368042B11D100220368BFF35B8F53E81E
:1012B000001F012903D143E800200028F7D1BFF324
:1012C0005B8F074808BF104608BD3BB1006803F0BC
:1012D000A7FC0020F8E76FF4E040F5E70148F3E7EA
:1012E000E98FFFFFEA8FFFFF10B5044618B90D4BD9
:1012F0000D485B689847616808290DD031F00403F8
:101300000AD011F0020108D00848214603F024FB5E
:10131000002323600023636010BD2068142205F0C1
:1013200066FEF7E7E0000020EE7F00005803002093
:1013300010B5044618B9164B16485B6898476368A1
:10134000042B23D0082B21D0CBB92368BBB912487A
:101350004FF0FF324FF0FF33214603F091FA08B906
:1013600023681BB90A4B0D485B6898472068142214
:10137000002105F03CFE636843F0020363602068CF
:1013800006F026F8636843F00103636010BD00BFF8
:10139000E0000020EE7F00005803002014800000D1
:1013A00008B508B34368042B10D101220368BFF3CA
:1013B0005B8F53E8001F002903D143E80020002879
:1013C000F7D1BFF35B8F0BD1002008BD53B100688C
:1013D0004FF0FF324FF0FF3303F022FB0028F3D031
:1013E0000348F2E70348F0E76FF4E040EDE700BFA1
:1013F000E98FFFFFEA8FFFFF08B506490648402343
:10140000142205F0C9FFBDE808400449044805F06E
:1014100081BB00BF7803002058030020E076000065
:10142000D07600002DE9F04FB0F81C9085B019F08F
:10143000080F0446039222D001290CBF49F010097D
:1014400049F02009A0F81C901434204604F04EFF07
:1014500068B99F4A9F49A048AC2305F067FD9F48A3
:10146000214605F063FD9A48AC2105F08BFC039BF7
:1014700083F31188BFF36F8F05B0BDE8F08F984FED
:10148000DFF8548209F00709022906D1204605F049
:10149000F7FC0028D8D0012868D1D4F818B0A38B65
:1014A000BBF1000F0ADA0026256823F00703C4E920
:1014B000006643F00103A383019627E003F00702CF
:1014C000511F012934D8002123F00703062A25687B
:1014D0009BB2C4E900110CD18D422A4638BF0A469E
:1014E0002AB1E18B12680131E183002AF8D143F07F
:1014F0000203A383204605F0C3FC06460028DBD088
:10150000A38B43F02003A38300230193A38B03F059
:1015100007024A45029203D0A268002A40F0F080F8
:101520001DB9019A002A00F036814FF00009E9E068
:10153000042A0ED123F007039AB2A283204605F0B5
:101540009FFC054618B142F02002A28300250195B8
:10155000DCE74046634940F21B133A4605F0E6FCDF
:1015600040F21B11384605F00DFCEFE7032835D19A
:10157000B9F1000F0BD05C4940464FF4AB733A46CB
:1015800005F0D4FC4FF4AB71384605F0FBFB236843
:101590005BB95649404640F257133A4605F0C6FC3F
:1015A00040F25711384605F0EDFB23691B680193A3
:1015B0005BB94F4940464FF4AD733A4605F0B6FC6F
:1015C0004FF4AD71384605F0DDFBA38B23F0070324
:1015D00043F00603A3830025AB4697E7042832D1E6
:1015E000B9F1020F0BD04349404640F25D133A4631
:1015F00005F09CFC40F25D11384605F0C3FBE38B1F
:101600005BB13D4940464FF4AF733A4605F08EFC5E
:101610004FF4AF71384605F0B5FB23695B68019361
:101620005BB93349404640F261133A4605F07EFC0F
:1016300040F26111384605F0A5FBA38B23F00703A8
:1016400043F00403C6E7052832D1B9F1010F0BD0EE
:101650002A4940464FF4B2733A4605F067FC4FF40E
:10166000B271384605F08EFB23685BB91F494046CE
:1016700040F265133A4605F059FC40F265113846D0
:1016800005F080FB23699B6801935BB918494046CC
:101690004FF4B4733A4605F049FC4FF4B471384640
:1016A00005F070FBA38B23F0070343F0050391E7DC
:1016B0000C4940F26B133A46404605F037FC0025D2
:1016C00040F26B11384605F05DFB019584E700BFE1
:1016D000E48000000A810000A3790000218100005D
:1016E00041800000A1790000638000006F8000004D
:1016F00092800000A9800000BF800000CE80000022
:101700004FF0010943F0080304F1140AA383504683
:1017100004F0ECFD68B93A4A3A49AC23404605F07A
:1017200005FC3948514605F001FC3548AC2105F06F
:1017300029FB039B83F31188BFF36F8FB9F1000F6F
:1017400038D1002D4BD1019B13B130492046984729
:101750004FF02003EFF3118B83F31288BFF36F8FE9
:101760005046CDF80CB004F0B3FD68B9244A2849BE
:101770008123404605F0DAFB2648514605F0D6FBAA
:101780001F48812105F0FEFA504604F0BFFDA38BEF
:1017900023F00803A383A38BDA0628D523F01003D4
:1017A000A3830121B4F81C9009F0070900297FF4F4
:1017B0006BAE49E6A1680029C3D00B68029A002BE2
:1017C00038BF002399464B6820461E465B46B0470B
:1017D000B9F1000FB5D0D9F800304946EEE72946F7
:1017E000029A2D685B46204605F066FBA9E713F0D8
:1017F00020011EBF23F02003A3830221D2E700BFF4
:10180000E48000000A810000218100001918000016
:10181000368100004B810000F8B504460D4600F10A
:1018200014064FF02003EFF3118783F31288BFF300
:101830006F8F304604F04CFD68B90C4A0C490D48D6
:10184000812305F073FB0C48314605F06FFB074818
:10185000812105F097FA304604F058FDA5613A461B
:1018600020460121BDE8F840FFF7DCBDE480000020
:1018700036810000A37900004B8100002DE9F0477C
:1018800004460F4605F02EFB051E5EDB04F114092D
:101890004FF02003EFF3118A83F31288BFF36F8FA9
:1018A000484604F015FD68B9384A3949394881235A
:1018B00005F03CFB3848494605F038FB33488121A8
:1018C00005F060FA484604F021FDE38BA28B4FF649
:1018D000FF718B4202F0070650D0022E24D1013353
:1018E000E38335464FF00108484604F0FFFC68B931
:1018F000264A2A492748AC2305F018FB28484946C0
:1019000005F014FB2148AC2105F03CFA8AF311885C
:10191000BFF36F8FB8F1000F17D00023324639465E
:10192000204605F0C9FA10E0930701D0062E0FD12A
:1019300000233B606368F3B9C4E900773546FEB91C
:10194000524602212046FFF76DFD2846BDE8F0878C
:10195000052E18D0012E0BD012490E48124A40F223
:10196000C91305F0E3FA104840F2C91105F00AFA6C
:101970006FF0040504E01F606760DFE76FF00A05A1
:101980004FF00008B0E76FF08505F9E7E48000004C
:1019900036810000A37900004B8100000A8100001D
:1019A00021810000CE800000418000002DE9F84335
:1019B00005464FF02003EFF3118683F31288BFF33F
:1019C0006F8F234804F084FC68B9224A22492348D7
:1019D000812305F0ABFA1E49214805F0A7FA1D48FE
:1019E000812105F0CFF91A4804F090FC1D4B1C68CA
:1019F000002C38BF00249CB11B4FDFF878804FF0DB
:101A00000C09D4E90132002D08BF13462BB198F818
:101A1000142009FB02F2B85C98472468002CF0D12E
:101A20000B4804F063FC68B90A4A10490B48AC2320
:101A300005F07CFA06490E4805F078FA0548AC2115
:101A400005F0A0F986F31188BFF36F8FBDE8F88326
:101A500078080020E480000036810000A3790000AF
:101A60004B8100007C080020880800200A810000CB
:101A700021810000EC09002000F01F0301229A40A0
:101A80000A4BBFF35B8F400903EB800050E8003F37
:101A900043EA020140E8001CBCF1000FF6D1BFF39D
:101AA0005B8F1A4214BF0120002070479408002069
:101AB00030B51D4B1D7DBFF35B8F05F01F03012269
:101AC0009A401A4B690985B0D04303EB810353E870
:101AD000001F01EA000443E8004CBCF1000FF6D1FE
:101AE000BFF35B8F114217D0114C0C2202FB054251
:101AF00007CA01AB83E807000E4A7AB193E80700F2
:101B000005F091FA0020FFF751FF0C236B430022F0
:101B1000E118E250C1E9012205B030BD82F311881D
:101B2000BFF36F8FEEE700BFEC09002084080020B0
:101B300088080020277000002DE9F041374BDFF8BE
:101B4000F4801C7D88B007462046FFF795FF60B9FA
:101B50006E463A462146304605F0F5F996E807000C
:101B60000C2505FB048585E807000C23634308EB7F
:101B7000030218F80300650904F01F06C8B37B1CB4
:101B80000FD0D2F808E02648264A4FF4004C002136
:101B90000023ECFB0E01FEF7B3FA0121381A04F022
:101BA00077FD03F0C5F90120FFF700FFBFF35B8F5E
:101BB0001D4B0122B24003EB850353E8001F114384
:101BC00043E800100028F8D1BFF35B8F0C2303FB20
:101BD000048494E8070005AB83E80700134A1AB1B0
:101BE00093E8070005F00CFAFFF762FF03F098FE98
:101BF00001200F4ABFF35B8F0123B340DB4302EBAD
:101C0000850555E8002F1A4045E800210029F8D144
:101C1000BFF35B8F08B0BDE8F08100BFEC09002086
:101C20003F420F0040420F00840800200170000076
:101C300094080020880800200B6801330B60014BDA
:101C40001B68184724000020014B1860704700BF34
:101C50002400002007B50B460021024601910348ED
:101C600001A9FEF735FF03B05DF804FB391C000045
:101C700008B54FF02002EFF3118382F31288BFF30F
:101C80006F8F00F0A1FC034805F050F900F00AF84E
:101C9000FCE700BF63810000014910220A60704721
:101CA00010ED00E072B6404080F31188BFF36F8FF3
:101CB000BFF34F8F30BF62B6BFF36F8F704700BF67
:101CC00072B6494081F3118820BF80F3118862B653
:101CD000704700BF01B572B60B4A906900281EBF5D
:101CE0000021916105F051FB62B6EFF30580A0F190
:101CF00010004FEAC0000549014409C99847BDE8F2
:101D00000140034908470000EC090020207500004D
:101D1000391F000030BFFFF7FDBF00BF12498A68BE
:101D20004FF030001044EFF3098C80E8F01F2020C2
:101D300080F31288BFF36F8F0C4F4FF00066CA69B3
:101D40008A603E60506F0023536780F3118804B5AA
:101D5000104600F0E7FABDE8044002F1300090E8D8
:101D6000F01F8CF309887047EC09002004ED00E0B7
:101D70001EF0040F0CBFEFF30880EFF309808169B8
:101D800011F8021C0229FFD001B505F0EDF801BDE4
:101D900043B2002B08DB012200F01F0002FA00F022
:101DA0005B09024A42F82300704700BF00E100E0EF
:101DB000054B420900F01F0053F82220012303FACB
:101DC00000F01040704700BF00E100E070B54C1C0F
:101DD000072C05460E460FD9114A124912485923BD
:101DE00005F0A4F81148314607232A4605F09EF86D
:101DF0000B48592104F0C6FF6BB2002BACBF03F1B6
:101E000060430B4B4FEA4414B8BF05F00F05E4B232
:101E1000AABF03F561435C5583F8004370BD00BF62
:101E20008C810000C2810000A3790000DD810000E8
:101E300014ED00E00B4A08B50B4B22F07F029A60CC
:101E4000BFF34F8FBFF36F8FD3F8882022F4700257
:101E5000C3F8882002F05CFC04F086FD00F0F6F97F
:101E600002F060FC0000000000ED00E0094A0A49B1
:101E7000936809689967094958674B6843F080532C
:101E80004B60002383F31188BFF36F8F9368986FC3
:101E9000704700BFEC0900200078000000ED00E072
:101EA00042F8203C009B42F81C3C0A49019B42F846
:101EB000183C029B42F8143C21F001014FF0807362
:101EC00042F8043C42F8081C0023203A02654367AC
:101ED000704700BF516F00000B4A0346906890B1F5
:101EE00013F1160F406E05D0A0F120029A4206D8D9
:101EF000834204D281422CBF0021012100E0002155
:101F0000002908BF00207047EC09002008B5094BE4
:101F100098600D46144600F005FA204685F30988BE
:101F2000002163B681F31188BFF36F8F0022002375
:101F300005F00EF8EC090020044B9968D869884236
:101F400003D003494FF080520A607047EC0900202B
:101F500004ED00E0EFF30880EFF3098101B572466C
:101F600000F0AEF801BD00BF002080F31488BFF37D
:101F70006F8F05F063FA00200D490860BFF34F8FA3
:101F80000C4880F3088800F07DF9202080F3118848
:101F900009484FF40261401880F30988EFF3148078
:101FA0000221084380F31488BFF36F8FFFF742FFCD
:101FB00094ED00E020140020A0150020234B70B504
:101FC00015469A6A9A6A9A6A044690071AD5586B17
:101FD0009A6A120616D519B19A6A22F080029A629C
:101FE0009A6A9A6A9A6AD6060FD49B6A99070CD4A1
:101FF0000024164A936A43F0FF03936200232B7078
:10200000204670BD6FF01500EAE7104E73681A05A0
:10201000EED52146FFF760FF044618B180F309882A
:102020000224E6E7B36ADB06E2D5094A09490A4811
:1020300040F2491304F07AFF084804F077FF04489F
:1020400040F2491104F09EFED3E700BF00ED00E02E
:102050001D82000057820000A3790000A1820000C9
:102060000D4B9A6A9A6A9A6A920508D59A6B9A6A8F
:10207000120404D518B19A6A22F400429A62064BFF
:102080009A6A9A6AD20558BF9A6A9A6A002042F4FC
:102090007F429A620870704700ED00E0074B9A6A31
:1020A0009A6A9A6A9A6A9A6A9A6A9A6A6FEA02427B
:1020B0006FEA12429A620020704700BF00ED00E014
:1020C00070B5544B5C688AB00D46C4F30804002612
:1020D00086F31188BFF36F8F02F07F43B3F17F4F18
:1020E00008D102F00C03082B04D012075CBF054690
:1020F00001267DB9484A4949494840F2F23304F083
:1021000015FF484804F012FF434840F2F23104F052
:1021100039FE002500238DF80730E31E032B72D80B
:10212000DFE803F002696D493A4BDC6A14F00204FF
:1021300069D1DA6A002A18DBDB6A5B004ED5AB692D
:1021400033F8022C4DF602739A420DD003F160432E
:1021500003F626631B780BB30DF107020121284615
:10216000FFF72CFF044600E02C689DF807309BB970
:102170002022294602A804F02FFF099B002E44D0FC
:10218000C3F3080222B96FEA53236FEA432309938A
:1021900002A9204604F0E6FE0AB070BD224B1B786F
:1021A0002BB10DF107010120FFF75AFFDAE71F4BB2
:1021B0001B889BB213B1FFF771FFD3E71C49164A86
:1021C000174840F2C32304F0B1FE1A4804F0AEFEF3
:1021D00040F2C321104804F0D5FDC6E714490E4A69
:1021E0000F4840F2C72304F0A1FE134804F09EFEFE
:1021F00040F2C721EEE70DF107020021AFE70DF134
:1022000007010020D0E70024AFE723F4FF7323F099
:102210000103BCE700ED00E01D820000C482000065
:10222000A3790000D782000029ED00E02AED00E04C
:10223000A17900001583000039830000024A536928
:1022400043F010035361704700ED00E004480023A1
:102250002021C2180133302B82F80013F9D17047C6
:1022600000E100E0064A11680023C1F30721184687
:102270008B4200D17047936010610133F8E700BFD3
:1022800090ED00E008B572B6002383F31388FFF7E2
:10229000E9FF144B4FF0FF32C3F88020C3F88420CD
:1022A000C3F88820C3F88C20C3F89020C3F894208A
:1022B000C3F89820C3F89C20C3F88021C3F8842178
:1022C000C3F88821C3F88C21C3F89021C3F8942166
:1022D000C3F89821C3F89C2162B6BFF34F8FBFF3B8
:1022E0006F8F08BD00E100E0064B9B68834207D179
:1022F000EFF3058323B1044A536843F080535360DE
:1023000003F076BDEC09002000ED00E0024B034A2B
:102310000348012100F068B80000042000000020FC
:10232000F4760000426E054B203A1A60044A2021E0
:10233000C3E901121846012100F07EB89808002078
:1023400000000B15F0B51E4F00268E4201DB104633
:10235000F0BD446884B353B104F1FF3C14EA0C0FA0
:1023600018D11F2C16D905681CEA050F12D1202C94
:102370000568D0F808C0D2B20FD9B4F1004F0ED81A
:10238000013CB4FA84F4C4F11F046400072A4CEA47
:10239000040406D96FF01502D9E70824F6E73E24B5
:1023A000F4E725F01F05154345F0100544F001043E
:1023B000BA60FD6001323C6101360C30C5E700BFF8
:1023C00090ED00E0034B05225A60BFF34F8FBFF33F
:1023D0006F8F704790ED00E0BFF35F8F014B0022DD
:1023E0005A60704790ED00E038B50E4D01232A7811
:1023F0000C46FFF7A7FF2870163011D140F21113D9
:10240000094A0A490A4804F091FD2146094804F0A6
:102410008DFDBDE83840044840F2111104F0B2BC13
:1024200038BD00BF4C0A002069830000A17900007C
:10243000A3790000A083000010B5124A002312788F
:102440000C46FFF77FFF10F1160F08D00E4B00224D
:10245000072800DD10BD98601A610130F8E70B4ACB
:102460000B490C484FF4987304F060FD21460A486C
:1024700004F05CFDBDE8104004484FF4987104F08E
:1024800081BC00BF4C0A002090ED00E06983000091
:10249000A1790000A3790000CC830000254910B584
:1024A0000C68082C13D94FF4A473234A23492448F9
:1024B00004F03CFD23480822214604F037FD1E4865
:1024C0004FF4A47104F05EFC4FF0FF3010BDFFF735
:1024D00083FF48681C490022944200F10C0019D186
:1024E0001A4B1C70FFF76EFF0B68C3F30723082B12
:1024F0000ED01749104A12484FF4D47304F016FD59
:10250000144804F013FD0C484FF4D47104F03AFC65
:102510000020DBE78A6050F80C3C23F01F031343D4
:1025200043F01003CB6050F8043C43F001030B610F
:102530000132D1E70077000069830000A179000033
:10254000A3790000F983000090ED00E04C0A002020
:102550002D8400007D840000014B1860704700BF8F
:10256000280000204FF02003EFF3118183F312883D
:10257000BFF36F8F0F4A0123C2F840354FF08042FE
:10258000C2F878350C4A1268082A08D10B4A12683A
:10259000052A04D80A48825C0AB10A4A13604FF03F
:1025A00080430122C3F8802581F31188BFF36F8F28
:1025B0000020704700E0014030010010340100109D
:1025C000AD840000380600404FF08043C0B2C3F82D
:1025D0001C05BFF34F8F0549054BCA6802F4E06242
:1025E0001343CB60BFF34F8F00BFFDE700ED00E06A
:1025F0000400FA0520B1034B800143F001031847A2
:10260000704700BFC07600002DE9F041104C071B59
:10261000C7F347174FF00C0808FB07F8064608F108
:1026200048000D462044402104F008FD011E09DB4E
:10263000084B4444C4E91035074B53F83730BDE824
:10264000F041184730462B46BDE8F041184700BF1F
:10265000B40800209F7000003877000038B5CCB275
:10266000012C054609D9094909480A4A792304F089
:102670005DFC0848792104F085FB2B690C2104FBE3
:102680000134A06C00F0070038BD00BFF0840000EA
:10269000A3790000B3840000F8B5CCB2012C07691F
:1026A000054616460BD918491848194A40F24D13E9
:1026B00004F03CFC164840F24D1104F063FB4FF06F
:1026C0002003EFF3118283F31288BFF36F8F0C2383
:1026D00003FB0471896C11F0C00101D08E4210D14E
:1026E00003FB047301219964002082F31188BFF376
:1026F0006F8F28B9696801EBC404636898470020AC
:10270000F8BD4FF0FF30F0E7F0840000A37900003F
:10271000B384000070B50D460649411A04464911BC
:1027200005484022FFF7B8FF2B4601462046BDE88A
:1027300070401847B4080020A8740000002270B54B
:10274000012104461046FFF741FB0020FFF720FB64
:102750000F4801F053F80F4B984215D101F072F871
:1027600026690D49304604F0CCFB00280BDB01251F
:10277000B5642469084904F1200004F0C2FB002874
:1027800001DB6565002070BD6FF00400FBE700BF52
:10279000D12700000000AD0B4877000001460C2354
:1027A00009484B4370B5C418D4E910560022483389
:1027B0002264184404F060FC2DB132462B460348D5
:1027C000BDE87040184770BDB4080020A874000030
:1027D000012808B506D0032808D0A8B9104B9B6C77
:1027E0005B071BD1BDE80840FFF7D8BF0D490E4A73
:1027F0000E4840F25E2304F099FB40F25E21BDE8F2
:102800000840094804F0BEBA0649074A074840F2A2
:10281000622304F08BFB40F26221F0E708BD00BFA9
:10282000B4080020A1790000B3840000A37900005F
:1028300008B54FF02003EFF3118183F31288BFF343
:102840006F8F124A136843F0020013F00103106007
:102850000CD04FF08042D2F80C34D2F80C2413F094
:10286000010303D00A4804F007FC012381F3118817
:10287000BFF36F8F23B1BDE808400020FFF78EBF84
:10288000BDE80840012000F0FDBF00BF0C0900209A
:10289000FC080020094BBFF35B8F53E8002F22F0A8
:1028A000020143E800100028F7D1BFF35B8FD30784
:1028B00002D4012001F03AB8704700BF0C09002093
:1028C0001FB500220123CDE90223094ACDF800D02B
:1028D0006B46CDF804D004F0F4FB002805DB4FF480
:1028E00080420023684603F075FB05B05DF804FBE9
:1028F000BD7000002DE9F8434949BFF35B8F0546E1
:10290000012251E8003F41E800200028F9D1BFF33F
:102910005B8FA3B9434944484B60CB608A60FEF7A4
:10292000ADFF00280BDA41494148424A4FF4087391
:1029300004F0FCFA3F484FF4087104F023FAADB3F9
:102940006B1E012B56D8012D07D14FF08043D3F8D1
:102950001C3403F00303012B28D004F060FD04466F
:1029600018B9354B1B78002B52D14FF02003EFF3F1
:10297000118683F31288BFF36F8F01242F4FDFF886
:10298000C480DFF8C4904FF08042D2F81834D2F8F7
:102990001824D2030CD503F00303012B01D0012D21
:1029A00006D10CB386F31188BFF36F8FBDE8F883AF
:1029B000ACB13046FFF784F94FF08042D2F81835B9
:1029C000002BE0D139680029DDD03B603B68012352
:1029D000C2F81835C8F88031C9F80030D3E70021B3
:1029E000212003F0C7F9E7E74FF080430222C3F844
:1029F0000423DBE712490E480E4A40F2322304F06A
:102A000095FABDE8F8430B4840F2322104F0BAB918
:102A10004FF080430222C3F808230646AEE700BF0A
:102A200010090020A4080020D4080020148500000C
:102A3000A3790000B38400005D0E00200401004073
:102A4000A179000000E100E00800004008B5084B53
:102A50000848186004F08FFC38B10748FFF77CFD88
:102A60000548FFF7F1F8002008BD6FF01200FBE702
:102A700014090020087500007D2A00000A2838B5D6
:102A8000074D044604D1286883680D215B68984788
:102A900028688368E1B25B689847204638BD00BF6C
:102AA0001409002070B5056916460C4661B9224923
:102AB000224A2348242304F039FA224804F036FA43
:102AC0001E48242104F05EF9636863B91E491B4A5D
:102AD0001B48252304F02AFA1C4804F027FA17485B
:102AE000252104F04FF96B685BB100229C4213D1A1
:102AF00023685AB9AA686B60944200D1AB60002386
:102B0000236076B9002070BD0B46EFE71360AB6819
:102B10009C4208BFAA60F2E719681A460029F3D15F
:102B20003EB16B682360A8686C600028EAD1AC6095
:102B3000E9E76FF01500E6E7508500002385000007
:102B4000A379000059850000688500007A8500009F
:102B500043092DE9F04703D0012B36D0BDE8F087BB
:102B60001B4F3B695C68002CF8D02568DFF86C804F
:102B7000DFF86C90DFF86CA000F01F000126002D3C
:102B800006FA00F638BF0025A3681E4214D0636819
:102B900063B9494645234246504604F0C7F90D48FB
:102BA00004F0C4F94521404604F0ECF8D4E90132C0
:102BB0002146324038469847002DCFD02B68002B55
:102BC00038BF00232C461D46DEE7034FC9E700BF90
:102BD000C07400007A850000D874000023850000CE
:102BE00091850000A37900007FB54068057B01F066
:102BF0001F04B2F5005F44EA45144FF0000504D10C
:102C0000204601F02BFA002054E0B2F5804FCDE9C8
:102C1000025551D1B3F5003F0CBF042305238DF8B5
:102C20000830836823FA01F111F0010155D1B2F5A2
:102C3000A03F52D166094AD04FF6FF73012E08BF5C
:102C4000194604F01F05E940CA070BD42B492C484C
:102C50002C4A40F2292304F069F92A4840F229213C
:102C600004F090F86EB1012E34D027492448254A4B
:102C700040F22E2304F05AF9224840F22E2104F0AB
:102C800081F84FF0A04305F5E07553F82530DB07D8
:102C900023D40DF107052946204601F009F91B4B05
:102CA000984219D1284601F063F9194B984213D084
:102CB0006FF00B0004B070BDB3F5C02F05D0B3F5B5
:102CC000003F0CBF02230123A9E70323A7E74FF02E
:102CD000FF31B6E70F4BD6E703950023194602AA4A
:102CE000204600F0C7FF0A4B984204D1012120463C
:102CF00001F044F987E76FF00400DBE7D0850000BE
:102D0000A37900009D850000A17900000400AD0BAF
:102D10000000AD0B0003005010B501F019F9044696
:102D200068B901F0EDF8084B98420AD107482146EE
:102D300001F0B8F8224605210620FFF747F80020E9
:102D400010BD6FF00400FBE70000AD0B512B00003D
:102D50002DE9F04347683B7B01F01F0585B00E4627
:102D600045EA43151446CAB902A9284601F0A0F85D
:102D70000446284601F094F9484B984204D06FF07D
:102D8000040005B0BDE8F083844205D19DF8080039
:102D900001F0E8F8A042F2D10020F2E74FF000097C
:102DA0000DF103013046CDE9029901F081F84B465F
:102DB000804602AA4946284600F05CFF374B9842FD
:102DC00002D06FF01500DCE7804503D19DF80300C9
:102DD00001F0C8F8A3054ED5314B324A2340934247
:102DE0003AD00CD8062B14D004D893B1022BE8D1DA
:102DF00004230EE0B3F5801FE3D1012309E02A4A42
:102E000093422BD0B3F5A00F2AD0B3F5800FD8D1C1
:102E100002238DF8043084F48073C3F30023E006AA
:102E20008DF8053054BFC4F34013032321058DF8FA
:102E3000063017D57B68012101FA06F6C3F808654C
:102E4000002201A9284600F0BDFF144B984214BF90
:102E50006FF01500002094E70723DAE70523D8E791
:102E60000323D6E7620541BF7B68012101FA06F61C
:102E7000C3F80C65E4E7E3064FF0000354BFC4F366
:102E8000401403241A4601A928468DF8044000F096
:102E9000F1FE024B98423FF47FAF92E70000AD0B8A
:102EA0000600F0000600100002004000F0B54B796B
:102EB000012B26D0032B21D110268B79032B1DD17A
:102EC000CC790CB1012C19D10A7912B1022A15D191
:102ED0000E220B684568B3F5164F2D6865D02DD8C6
:102EE000B3F5165F64D016D8B3F5966F62D00AD8E2
:102EF000B3F5967F61D0B3F5167F61D06FF0850092
:102F000052E00026D9E7B3F5166F5CD0B3F5965FB3
:102F1000F4D1374B3CE0B3F5E14F57D007D8B3F5C8
:102F2000615F55D0B3F5964FE8D1324B30E047F6AC
:102F30001227BB42E2D14FF4000329E0B3F5613F11
:102F400048D013D8B3F5963F47D009D84DF6C027DF
:102F5000BB4244D0B3F5614FD0D14FF46B0317E0BF
:102F6000B3F5E13FCAD14FF0EB7311E0B3F5612F38
:102F700038D008D8204FBB4237D0B3F5E12FBDD1B0
:102F80004FF0E86304E01D4FBB42B7D14FF08053D0
:102F9000C5F82435036903C9344322430433C5F813
:102FA0006C2583E803000020F0BD4FF41D03EFE71C
:102FB000134BEDE74FF49E23EAE74FF4A033E7E726
:102FC0004FF41C33E4E74FF41D23E1E70D4BDFE73B
:102FD0000D4BDDE74FF06C73DAE70C4BD8E74FF49D
:102FE0006503D5E74FF07063D2E74FF08063CFE71A
:102FF00000B0130000A04E0090D0030040420F002C
:103000000050270000C0750000F03A0000903A011F
:103010000268530910B504462CD0012B4FF6FF73FC
:1030200018BF002302F01F02D340DB070BD4144962
:103030001448154A40F2292303F078FF124840F261
:10304000292103F09FFE236803F01F025B09226021
:103050000DD0012B11D00D490A480B4A40F22E2306
:1030600003F064FF084840F22E2103F08BFE4FF07E
:10307000A04010BD4FF0FF33D4E70548F9E700BF8B
:10308000D0850000A37900009D850000A179000093
:1030900000030050F8B5066905460F4604F0BFF975
:1030A00010B92C4B1B7883B94FF02003EFF3118438
:1030B00083F31288BFF36F8F284604F08DF828BB86
:1030C00084F31188BFF36F8FEEE76424284604F081
:1030D00083F870B9012004F0D5F8013CF6D1002145
:1030E000212002F047FEF0E784F31188BFF36F8FD1
:1030F000F5E74FF02003EFF3118483F31288BFF359
:103100006F8F284604F068F80028EDD006F8107F8D
:1031100069680B680122C3F84465C3F8482500229A
:10312000C3F82021D3F82001C3F85821D3F858213F
:103130004A68D20641BF0822C3F800254FF4800236
:10314000C3F8042301229A6084F31188BFF36F8FC0
:10315000F8BD00BF5D0E00202DE9F743D0F80480D4
:103160000769D8F800400023C4F800353860456886
:10317000EB680646581C13D001A80193FFF748FFDF
:10318000019A01239340C0F80835EB68019301A828
:10319000FFF73EFF019B03F5E073032240F8232075
:1031A0002B69591C11D02A7F0193002A01A814BF52
:1031B0004FF003094FF00009FFF72AFF019B03F5C9
:1031C000E0734FEA890240F823206B695A1C13D040
:1031D00001A80193FFF71CFF019A01239340C0F857
:1031E00008356B69019301A8FFF712FF019B03F5F6
:1031F000E073032240F82320AB69581C11D06A7F8A
:103200000193002A01A814BF4FF003094FF00009F1
:10321000FFF7FEFE019B03F5E0734FEA890240F8D9
:103220002320D5E903122B68C3F80C15C3F8142525
:10323000D5E90512C3F808153169C3F81025043122
:103240003046FFF733FE0546002846D1D8F8043053
:10325000990719D507F1120001F020F8224B984286
:103260003FD1B87CC30003F1804303F5F83304F188
:103270000C0204F59071C3F81015C3F814251B4A0D
:1032800001238340C2F804350823C4F8003598F8B8
:1032900008305BB9C4F81031D4F8103107F11103CC
:1032A000C4F834350123C4F838352360D8F8043025
:1032B0009A075CBF4FF48072C4F80423DB0644BF56
:1032C0004FF48003C4F8043310370023C4F8447566
:1032D000C4F848350123A360E360284603B0BDE885
:1032E000F0836FF00405F8E70000AD0B00F001403B
:1032F000194970B5044622F07F460868C1E90023E9
:10330000A6F50013101AB3F5400F4FF000050AD2CE
:10331000124B19680A060B0A9219114943F100036E
:10332000C1E90023012503F003FAA30003F1804360
:1033300003F58833D3F84025B2420BD11DB94FF4C1
:103340000002C3F84025074B4FF4803000FA04F424
:10335000C3F8444370BD00BFC001002038090020FD
:10336000A80100200010014010B501238340114A3C
:10337000BFF35B8FDC4352E8001F01EA040C42E814
:1033800000CEBEF1000FF6D1BFF35B8F4FF4803259
:1033900002FA00F002F1804202F58052C2F80803FE
:1033A000BFF35F8FBFF36F8F0B4214BF012000206C
:1033B00010BD00BF340900200123124ABFF35B8F08
:1033C000834052E8001F194342E8001CBCF1000F83
:1033D000F7D1BFF35B8F0C4A4FF480338340C2F8C0
:1033E00004330A4BBFF35B8F1B68BFF35B8F23FA79
:1033F00000F0C30742BF064B4FF40032C3F8002170
:10340000704700BF3409002000100140300900203F
:1034100000E100E00D4B1B68190A1806BFF35F8F2F
:103420000B4BD3F80435C01841F10001B3F5801FF0
:103430000AD2084BD3E90023994208BF904203D235
:1034400010F1807041F10001704700BF3809002081
:1034500000100140A80100202DE9F04F85B016466C
:103460001F460546FFF780FF0190FFF7D3FFB942E3
:1034700008BFB0427FD2B6EB000867EB010900231A
:103480004FF080724B4508BF4245C0F08580444BE9
:1034900003EB0513D3E902239F4208BF964254D0A1
:1034A0004FEA85094FF4803B09F1804905F1500846
:1034B0000BFA05F209F588394FEA88081FFA88F8EF
:1034C0000292384AD9F8400526F07F4308F1804837
:1034D00008F588381C469346D2F804A5A0EB0A00EC
:1034E00020F07F402AF07F410128C9F8401505D11E
:1034F0000393132003F09DFF2A4A039B02990AF1CC
:10350000020CA4EB0C0020F07F40B0F5000F88BF48
:1035100064460020C8F80000D8F80000CBF8441337
:1035200024F07F40C9F84005DBF80405824506D049
:10353000201A023820F07F40B0F5000F19D8E41AA5
:1035400024F07F44321947F10003154C290104EBA4
:103550000510C0E902230E9A0F9B625043600024BD
:10356000019B13B12846FFF727FF204605B0BDE8B1
:10357000F08F2046B0E701230B4ABFF35B8FAB40CF
:1035800052E8001F194342E800100028F8D1BFF3A9
:103590005B8F32463B46D8E76FF01504E0E700BF8B
:1035A000B0010020001001403009002073B5194B14
:1035B000194D00244FF0FF304FF0FF31C5F808459A
:1035C000C3E902014FF48033C5F80433134B0226DC
:1035D0004FF400320121C5F804631120C3F88021A3
:1035E0002246FEF7F3FB1120FEF7D2FB0C4A012323
:1035F00013600C4A2B6013600B4B0C4A0093019430
:1036000000232046FFF728FF3046FFF773F92046D6
:1036100002B070BDB00100200010014000E100E0E8
:103620000810014034090020F1320000FFFF7F0044
:103630002DE9F743344CD4F804339A0709D5334BBA
:103640001A6832B100221A60314A1B6813680133CC
:1036500013604FF02003EFF3118283F31288BFF35E
:103660006F8FD4F80433DB0312D5BFF35B8F294B84
:1036700053E8001F21F0010043E80006002EF7D1B7
:10368000BFF35B8F244B002936D11968002933D151
:10369000002382F31188BFF36F8F53B3FFF7BAFE95
:1036A00006464FF02003EFF3118083F31288BFF337
:1036B0006F8F1A4BD3E90289494508BF46454FF041
:1036C00000021ED34FF0FF364FF0FF37D3E900154D
:1036D000C3E902671A604FF48033C4F8483380F3BB
:1036E0001188BFF36F8F21B1009542464B460020F1
:1036F000884703B0BDE8F083002119601B680123EF
:10370000C7E71146EBE700BF00100140041101407C
:10371000380900203009002040110140B00100208C
:10372000144B13B5B0F1FF3F08BF1846441E002CE0
:103730001EDD9C42A8BF1C46FFF76CFE0E4B0F49D6
:10374000D3E90023801AB0F5000F28BF0024013010
:10375000044408480091844228BF044612194FF0DF
:103760000000019043F10003FFF776FE02B010BDA8
:103770000024E1E7FFFF7F00C0010020F1320000DC
:1037800008B5FFF747FE024B1B68C01A08BD00BF13
:10379000C001002008B578B101281CD0144A154991
:1037A00015484FF44F7303F0C1FB11484FF44F71AC
:1037B00003F0E8FA00200DE031B14FF08043D3F878
:1037C000183403F003030B604FF08043D3F8180460
:1037D000C0F3004008BD31B14FF08043D3F80C3442
:1037E00003F001030B704FF08043D3F80C04EFE7B4
:1037F00008860000A1790000A379000010B50446F6
:1038000048B90A490A480B4ABD2303F08FFB09480F
:10381000BD2103F0B7FA084B1A7922B901220748F3
:103820001C609A8010BD0648FCE700BF7986000046
:10383000A37900003C8600003C0900200000AD0B8D
:103840000C00AD0B08B50B4B1B794BB90A490B4863
:103850000B4AD62303F06AFB0948D62103F092FAFB
:103860000020FEF7A5FA18B9BDE80840FEF790BAA7
:1038700008BD00BF3C09002087860000A379000036
:103880003C860000224B1B7913B504465BB92149E5
:103890002148224A4FF4897303F048FB1F484FF434
:1038A000897103F06FFA74B1012C27D01B4A1C49AF
:1038B00019484FF4A27303F039FB18484FF4A27172
:1038C00003F060FA16E001A92046FFF763FF4FF00E
:1038D000804388B1019A012A0ED1C3F81825114BF3
:1038E00000221A601B684FF080430222C3F80423B1
:1038F00001229A6002B010BD0022EEE70A4B0022BE
:103900001A601B684FF08043C3F804431C60F1E762
:103910003C09002087860000A37900003C86000057
:10392000A1790000040100400001004037B52F4D8F
:103930002A7904465AB92E492E482F4A40F24B1391
:1039400003F0F4FA2C4840F24B1103F01BFA7CB15F
:10395000012C28D029492748274A40F2671303F051
:10396000E5FA254840F2671103F00CFA03B030BDC8
:103970004FF080430222C3F80823C3F8044103F543
:10398000827301221B681E4B42F210741A600021E0
:103990000846FFF7FFFE0028E8D0012003F072FC84
:1039A000013CF4D1E2E74FF080430022C3F8084322
:1039B000C3F8002103F580731B68124B1C608DF85F
:1039C000074042F210740DF107010120FFF7E2FEFB
:1039D00010B900236B71C9E79DF807000128F8D1E1
:1039E00003F050FC013CEED1F3E700BF3C0900209E
:1039F00087860000A37900003C860000A1790000C2
:103A00000C00004004000040164B07B51A686AB16C
:103A100000221A601B684FF080430122C3F808237C
:103A2000114B587910B95A711B6898470F4B1A6897
:103A30006AB10020186001A91B68FFF7ABFE019A6C
:103A40004FF0804332B90122C3F818259A6003B0C1
:103A50005DF804FB0222C3F80823034B01201B6816
:103A60009847F4E7000100403C09002004010040B1
:103A700070B501250368B3FA83F2202AC2F11F044E
:103A800014D0BFF35B8F05FA04F223EA020250E878
:103A9000006F9E4204D140E8002CBCF1000FF6D12B
:103AA000BFF35B8FE6D102480C7070BD0148FCE7A4
:103AB0000000AD0B0200AD0B0368CB40DB0710B577
:103AC00015D4012303FA01F10368BFF35B8F41EAC8
:103AD000030250E8004F9C4204D140E8002CBCF1A6
:103AE000000FF6D1BFF35B8FEED1024810BD024844
:103AF000FCE700BF0000AD0B0400AD0B054B083028
:103B000033F8100000F02200A0F12203584258417F
:103B1000704700BF5400002070B500F108030C4C42
:103B200034F81330DA0505460E4607D5C3F34323B0
:103B300004EBC30254F8333052689847A3682BB1A2
:103B4000E26831462846BDE87040184770BD00BFA6
:103B500054000020194B083010B533F81020D1055F
:103B60001DD5C2F3432122F4F85223F8102003F1AB
:103B70001004002034F8022B12F4807F03D0C2F32B
:103B8000432291420BD001303028F3D1002243F878
:103B900031200B48FFF790FF0A4B984200D110BD2F
:103BA00009490A480A4A4FF4997303F0BFF9BDE87E
:103BB000104007484FF4997103F0E4B85400002016
:103BC000C80000200000AD0B09870000A3790000A9
:103BD000A586000038B50A4C00F1080534F8153008
:103BE0009A0606D55B0B074A03F5A273002142F83B
:103BF0002310FFF7AFFF002324F8153038BD00BFB6
:103C0000540000200060004010B50446006803F036
:103C10003BFB58B912491348134A40F2292303F0D9
:103C200085F9114840F2292103F0ACF8236803F02C
:103C30001F025B0922600DD0012B0ED00B490948F1
:103C4000094A40F22E2303F071F9074840F22E2171
:103C500003F098F84FF0A04010BD0548FCE700BF06
:103C6000D0850000A37900009D850000A1790000A7
:103C700000030050F0B5044685B017461D46F1B16B
:103C8000FFF73CFF10B14A4805B0F0BD0B46CDE947
:103C900000008DF80E008DF80F000DF10F020DF1F0
:103CA0000E01204603F005FB424A04F1080132F8F8
:103CB000113023F0020343F0010322F8113097B1D1
:103CC0003C4B3E787A6804F1080033F810108F07F7
:103CD0000CD5002AD7D133F8102022F01C0242EA7A
:103CE000860223F81020CDBB3348CDE721F0200118
:103CF000C904C90C23F81010002AECD0032EC2D836
:103D000017782EB92D4A07F5A27142F82160E2E733
:103D1000BA0002F1804202F5C04241EA4731D2F8CE
:103D200010C52CF0030CC2F810C5D2F810C52CF445
:103D30004F3C2CF4407CC2F810C5D2F810E54FEA95
:103D4000042C0CF47C5C4EEA064E4CEA0E0C41F05E
:103D5000200123F81010C2F810C5BCE7D5E90067B0
:103D60002046FFF7F7FE002EBED0124D2B689E4274
:103D700004D16B689F4201D100220AE010480DF186
:103D80000F01FFF775FE0C4B98427FF47DAF9DF855
:103D90000F2045F8326005EBC20308345F6035F848
:103DA000143043EA422343F4807325F814309BE730
:103DB0000400AD0B540000200000AD0B006000407B
:103DC000C8000020F0B5044685B0154609B300F1DF
:103DD0000807314E36F81730980701D49A0658D4A0
:103DE00013F01C0F02D04B78012B52D001238DF819
:103DF0000F300023CDE900134A1C8B1C20460DF127
:103E00000F0103F056FA36F8173043F0030326F893
:103E1000173015B9214805B0F0BD1F4E04F1080751
:103E200036F81700830734D595F800C0614689003D
:103E300020F0200001F18041C00401F5C041C00C18
:103E400026F817000023C1F810356A78002AE1D05F
:103E5000D1F81035AD7823F4991323F4F853C1F851
:103E60001035D1F810E5230203F47C53120443EA21
:103E70000E0302F440322D05134305F4801540EA89
:103E80004C302B4340F0200026F81700C1F81035C5
:103E9000C0E70348BFE700BF540000200000AD0B9F
:103EA0000400AD0B014BC3E9020170475400002030
:103EB00038B504460D4659B90B490C480C4A40F236
:103EC000352303F033F80A4840F2352102F05AFF57
:103ED0000834084B33F814309A0643BF5B0B2B7041
:103EE0000548064838BD00BF1D870000A3790000C3
:103EF000A5860000540000200000AD0B0400AD0BAF
:103F000038B50E4C94F87850B5B96022294604F1C2
:103F1000100003F06CF80620FDF73AFF084B094843
:103F20001D601B68084B4FF00042C3F804230123B7
:103F300084F87830636738BD0448FCE754000020FB
:103F40007C6100400000AD0B006000400500AD0B3F
:103F5000034B93F87800003818BF0120704700BF6A
:103F60005400002001460148FFF7A6BDC400002010
:103F700001460148FFF77CBDC4000020F7B5314D74
:103F800000F10807044635F8173013F01C0F0E46F1
:103F90000BD12D492D482E4A40F2DF3302F0C6FFE7
:103FA0002B4840F2DF3102F0EDFE35F817008306B2
:103FB0001FD510F002031CD1410B084603F075F920
:103FC00000F1804000F5C040036003688B0003F1FE
:103FD000804303F5C043D3F8102542F00102C3F833
:103FE000102526B11B4A01238B40C2F8043303B0CD
:103FF000F0BD5EB918491548154A40F2EE3302F09B
:1040000095FF134840F2EE3102F0BCFE35F8173050
:10401000C3F38203042B10D0052B10D001A8019408
:10402000FFF7F2FD019BD0F81015D94001F0010116
:104030000231204603F088F9D9E70321F9E702218C
:10404000F7E700BF5400002027870000A379000095
:10405000A5860000006000403C8700000E4B00F188
:10406000080233F81230990613D59A0711D45B0B66
:1040700001229A409B00094903F1804303F5C043A4
:10408000C1F80823D3F8102522F00302C3F8102545
:104090007047002103F058B9540000200060004030
:1040A0000E4B00F1080213B513F81230DB0704467B
:1040B00011D5FFF7D3FF2046FFF78CFD01A801942F
:1040C000FFF7A2FD019B03F5E073022240F82320D5
:1040D000034802B010BD0348FBE700BF54000020B6
:1040E0000000AD0B0400AD0B2DE9F04F654B6648A9
:1040F0006649002589B001222C461E6836B1D0F8E9
:10410000046316421EBF1C601E68154304338B42B5
:104110004FEA4202F1D15E4F3B687BB34FF0A043C0
:104120005C4ED3F820250692C3F82025D6F820351A
:104130000793C6F8203501960DF118094FF00008D5
:104140004FF0010BD9F80030F3B908F12008B8F1AD
:10415000400F09F10409F5D13B603B6801994FF02C
:10416000A043D3F820250692C3F82025019BD3F85D
:1041700020350793C1F820351343DDD10124002DEC
:1041800068D109B0BDE8F08F93FAA3F3B3FA83F3D3
:1041900008EB030606F108023F4B059633F81220A0
:1041A000C2F38203F40802939A4606AB06F00700B6
:1041B0000BFA00FC185D20EA0C001855910805A8C0
:1041C0000391FFF721FD059C039904F5E0744B076B
:1041D00050F82440C4F3014423D551463046FFF73C
:1041E0009BFC05A80596FFF70FFD059A02F5E07206
:1041F000E4B250F82220C2F30142944207D10021D8
:10420000304603F0A1F82146304603F09DF805A89A
:104210000596FFF7F9FC059B0BFA03F3C0F8203570
:1042200090E7022C0CBF03210221304603F08CF8EA
:10423000029B032B04D0022C07D1BAF1010FE6D167
:1042400051463046FFF768FCE1E7032CDFD1BAF1B5
:10425000020FF4E795FAA5F3B3FA83F304FA03F235
:104260009B0003F1804303F5C04325EA0205D3F820
:104270001005D3F81015C0F30520C1F30141FFF775
:104280004BFC7CE700610040006000402061004082
:104290007C610040000300505400002001460148AA
:1042A000FFF7E6BBD0000020034B1868A0F108031D
:1042B00058425841704700BF30010010064B1B6840
:1042C000082B06D1054B1B68052B02D8044AD05C8D
:1042D00070470020704700BF30010010340100100B
:1042E0004D870000024AD2F80034002BFBD0704703
:1042F00000E0014010B5FFF7D7FF40B14FF0804319
:104300000022C3F80C21C3F81021C3F83825FFF7A9
:10431000CBFF002846D04FF080525B4BD2F80414FC
:10432000C3F82015D2F80814C3F82415D2F80C14D9
:10433000C3F82815D2F81014C3F82C15D2F81414A9
:10434000C3F83015D2F81814C3F83415D2F81C1479
:10435000C3F84015D2F82014C3F84415D2F8241439
:10436000C3F84815D2F82814C3F84C15D2F82C1409
:10437000C3F85015D2F83014C3F85415D2F83414D9
:10438000C3F86015D2F83814C3F86415D2F83C1499
:10439000C3F86815D2F84014C3F86C15D2F8442459
:1043A000C3F87025FFF78AFF10B1384B384A1A60FE
:1043B000FFF784FF18B1374BFB22C3F81825FFF72E
:1043C0007DFF48B13449354B0A681B6822F00F0263
:1043D00003F00F0313430B60FFF770FF18B1304B6E
:1043E0004FF400721A60FFF75FFF48B14FF080434F
:1043F000D3F80024D20744BF6FF00102C3F80024B1
:10440000284B1B68082B0ED1274B1B68052B02D8A5
:10441000264AD35C3BB14FF01023D3F808224FF06B
:104420008043C3F858254FF01023D3F80022002A08
:1044300003DBD3F80432002B22DA1D490123C1F833
:104440000435FFF74FFF4FF010201224C0F8004250
:10445000FFF748FFC0F80442FFF744FF0023C1F80C
:104460000435FFF73FFFBFF34F8F1249124BCA6865
:1044700002F4E0621343CB60BFF34F8F00BFFDE750
:104480000E4B0F4A1A6010BD00C000408C56004011
:104490004881030000F00040E40E00405802001084
:1044A00040960240300100103401001047870000A0
:1044B00000E0014000ED00E00400FA05D400002017
:1044C0000090D00310B5144C144A154903232361FE
:1044D0006361144BA261E3614FF4806323620023A4
:1044E000A3626362E36222660F4A6266E01D1022E5
:1044F000A2662367E366636702F048FDBFF35F8F40
:104500000A49204602F042FDBFF35F8F2023A371CA
:10451000BFF35F8F10BD00BF440900205387000028
:104520005C8700005D0A00204D0A002060870000C3
:104530000E4B70B553F82040013053F82060A6426E
:1045400000D870BDD4E900352846984765B1EB68BE
:1045500030B10028B8BF4042FF28A8BFFF20187024
:104560005A7842F001025A700834E8E7EC7700000C
:1045700070B5054610B90024204670BD0378002BA5
:10458000F9D00F4A0F4C1646944208D10D4CB44254
:10459000F1D0204602F0EFFE50B91834F7E720467C
:1045A00002F0E9FE10B12368AB42E5D01834EBE726
:1045B0002168284602F004FD0028EED1DCE700BFA8
:1045C00020750000A8740000F8B504460E464FF0B0
:1045D0002003EFF3118783F31288BFF36F8F01F08D
:1045E00001FC31460546204602F03CFE042C0CD16D
:1045F0000A490B4A0B488F2302F098FC0A4802F044
:1046000095FC07488F2102F0BDFB87F31188BFF3AB
:104610006F8F2846BDE8F840FDF766BE8987000029
:1046200067870000A3790000A6870000114CA268EC
:1046300092F90E20002A08B509DA0F490F48104AEE
:10464000272302F073FC0E48272102F09BFB4FF05A
:104650002002EFF3118382F31288BFF36F8F01F012
:10466000CFFFA061FDF768FA0028F0D1FDF71AFB33
:10467000EDE700BFEC090020FC870000A3790000F3
:10468000DB87000030B5002387B00122CDE9042389
:104690000F22CDE902320D4C0D4A01930D4918232A
:1046A00004EBC01403FB00234FF4B075009305FB2B
:1046B0000011094B4FF4A072204601F015FD637BF9
:1046C00023F00403637307B030BD00BFC8010020AE
:1046D000EC090020401400202D46000008B50A4BCC
:1046E000012202201A70FFF723FF02F057F903207E
:1046F000FFF71EFF01F05CFDFCF772F8034A137B25
:1047000023F00103137308BD5D0E00204802002052
:104710000248034A0021121A02F069BCA8010020D5
:104720001C10002080B5DFF8D880A6B088F3088878
:104730002D4D2E4E6B69DFF8CC9043F400730024AE
:104740006B61E02385F82230EC772C766C76AC76C2
:1047500085F820406B6A43F4E0236B6285F82340C0
:10476000FDF76CFDFDF798FA4FF0FF33AB62EB629B
:10477000FDF794FEFDF7CAFD40F20113ADF82430B9
:1047800006ABB360CDE91F4402F0F4FD2046FFF70D
:10479000CFFE0120164DFFF7CBFE01F08DF9154B32
:1047A0000593012314490094CDE903434FF480623B
:1047B0004B46CDE901442846F56101F095FC6A7B42
:1047C00022F004026A730746284600F0C1FD204625
:1047D000FFF758FF094BF3604A46394628463475BF
:1047E000C6F80480FDF792FB00ED00E0EC09002024
:1047F000480200202488000020100020C80100206A
:10480000C01D0020DD4600002DE9F041164D174C7B
:10481000174EA846AC420CD9164917483C233246DD
:1048200002F084FB154802F081FB3C21304602F087
:10483000A9FA444502D30020BDE8F081D4E904215F
:1048400041EA020313F003030BD1E068A361834242
:1048500001D12034DEE7A7690F600133A161114463
:10486000F5E76FF01500E7E7540100205401002040
:10487000298800004E880000A37900006B880000A2
:104880002DE9F74304460E469046994600F1080587
:104890004FF02003EFF3118783F31288BFF36F8F7C
:1048A000284601F015FD68B9244A25492548812389
:1048B00002F03CFB2448294602F038FB1F488121C6
:1048C00002F060FA284601F021FDA369EBB13360E4
:1048D0001B68A361E3690133E3610024284601F00A
:1048E00005FD68B9154A19491648AC2302F01EFBAC
:1048F0001748294602F01AFB1048AC2102F042FA90
:1049000087F31188BFF36F8F13E058EA090203D1D0
:1049100033606FF00B04E1E72246CDE900893946A8
:10492000284600F0C7FE044618B90A4B9B685B692D
:104930003360204603B0BDE8F08300BFE480000090
:1049400036810000A37900004B8100000A8100003D
:1049500021810000EC0900202DE9F04104460E46BB
:1049600000F108054FF02003EFF3118783F312885D
:10497000BFF36F8F284601F0ABFC68B9224A234988
:104980002348812302F0D2FA2248294602F0CEFAC7
:104990001D48812102F0F6F9284601F0B7FCD4F851
:1049A0001880B8F1000F0FD1204601F035F858B14A
:1049B00032684261C0F8788000F0CAFC3946284667
:1049C000BDE8F04100F070BA3368A2691A6033683C
:1049D000A361E369013BE361284601F087FC68B904
:1049E000094A0D490A48AC2302F0A0FA0B482946AF
:1049F00002F09CFA0448AC2102F0C4F987F3118854
:104A0000BFF36F8FBDE8F081E480000036810000C5
:104A1000A37900004B8100000A8100002181000081
:104A20002DE9F341044616461F46EFF3058363B1B3
:104A30007049714A7148652302F078FA704802F0B3
:104A400075FA6D48652102F09DF94FF02003EFF3F0
:104A5000118883F31288BFF36F8F6A4801F038FC26
:104A600068B9694A69496548812302F05FFA654976
:104A7000674802F05BFA6448812102F083F96148DB
:104A800001F044FCE368634AFBB1A0689168884286
:104A90003DD056EA07033CD15A4801F027FC68B9DB
:104AA000594A5D495548AC2302F040FA55495B48E4
:104AB00002F03CFA5448AC2102F064F988F3118802
:104AC000BFF36F8F6FF00F001EE0916891F90E1029
:104AD0004C4821610133E3609368A36001F006FC58
:104AE00068B9494A4C494548AC2302F01FFA454988
:104AF0004A4802F01BFA4448AC2102F043F988F31B
:104B00001188BFF36F8F002002B0BDE8F0812169EA
:104B1000DEE791F90E1090F90E309942A8BF1946C0
:104B20006FF07E029142B8BF11468B4244DD00F027
:104B3000F1FD0546CDE9006732482246414600F0C6
:104B4000B9FD0028E0D04FF02003EFF3118683F386
:104B50001288BFF36F8F2B4801F0BAFB68B92A4A5D
:104B60002A492648812302F0E1F92649284802F023
:104B7000DDF92548812102F005F9224801F0C6FB44
:104B8000236821699C420AD04BB193F90E309942B7
:104B9000A8BF19466FF07E039942B8BF1946A068B6
:104BA00090F90E30994209D16DB11648314600F0A6
:104BB0007BF96FF00A00A7E70025BBE700F0AAFD2C
:104BC0000028F2D1F0E70F4801F090FB68B90E4AD7
:104BD00011490A48AC2302F0A9F90A490F4802F02A
:104BE000A5F90948AC2102F0CDF886F31188BFF38E
:104BF0006F8FDEE7AC8800008A880000A379000090
:104C0000BE880000140A0020E48000003681000005
:104C10004B810000EC0900200A8100002181000086
:104C200038B50446EFF3058363B15249524A5348FD
:104C3000C72302F07BF9524802F078F94E48C721A9
:104C400002F0A0F8A368002B00F08D804D4DAA68FB
:104C5000934240F08B80E3684BB94B494748464A42
:104C6000DF2302F063F94448DF2102F08BF8EFF311
:104C7000058363B13F49454A4048FD2302F056F998
:104C8000434802F053F94148FD2102F07BF8AB683C
:104C9000DB7B012B0CD13F493C4A3848FE2302F014
:104CA00045F93B4802F042F93848FE2102F06AF823
:104CB000AA68D37B013BD373E368012B05D9013B81
:104CC000E36000F02DFE002038BD4FF02003EFF32D
:104CD000118583F31288BFF36F8F2F4801F0F8FA24
:104CE00068B92E4A2E492548812302F01FF92A4926
:104CF0002C4802F01BF92948812102F043F826488C
:104D000001F004FBA068216990F90E30994201D0AE
:104D100000F000FD204600F07FFEA06058B190F941
:104D20000E2022610022826700F012FB1A482946F9
:104D300000F0BAF8C5E7E060174801F0D7FA68B9A3
:104D4000164A19490D48AC2302F0F0F812491748E9
:104D500002F0ECF81148AC2102F014F885F3118848
:104D6000BFF36F8FADE76FF01500ADE74FF0FF3089
:104D7000AAE700BFAC8800008A880000A379000081
:104D8000BE880000EC090020E3880000FA880000DB
:104D90002589000028890000140A0020E480000012
:104DA000368100004B8100000A8100002181000053
:104DB00010B5084C23685BB1FEF7E2FC034620689F
:104DC000054A0344BDE810401361002101F060BCB6
:104DD00010BD00BF240A0020EC090020F8B50446ED
:104DE0000D464FF02003EFF3118683F31288BFF3D3
:104DF0006F8F234801F06CFA68B9224A2249234890
:104E0000812302F093F81E49214802F08FF81D48D3
:104E1000812101F0B7FF1A4801F078FA1D4B0022FA
:104E20004FF4004740F2E73000211A61E7FB04012C
:104E300000234FF47A72FBF763F9002C164B1BDC4E
:104E40001860164B1D60FFF7B3FF0D4801F04EFAD6
:104E500068B90C4A12490D48AC2302F067F80849BA
:104E6000104802F063F80748AC2101F08BFF86F38D
:104E70001188BFF36F8FF8BD0228B8BF0220DFE7AB
:104E80001C0A0020E480000036810000A3790000A5
:104E90004B810000EC090020240A0020200A002099
:104EA0000A8100002181000038B504460D46E9B9A9
:104EB000EFF30583D3B9194BDA699B689A4215D091
:104EC00001F014FA68B9164A16491748C32302F0CC
:104ED0002DF81648214602F029F81148C32101F0A7
:104EE00051FFBDE838400020FCF7C0BF204601F06C
:104EF000FDF968B90A4A0B490B48AC2302F016F8D1
:104F00000A48214602F012F80548AC2101F03AFFA8
:104F100085F31188BFF36F8F38BD00BFEC09002007
:104F2000E48000000A810000A379000021810000D4
:104F300038B54FF02003EFF3118583F31288BFF3E8
:104F40006F8F294801F0C4F968B9284A28492948CF
:104F5000812301F0EBFF2449274801F0E7FF2348B4
:104F6000812101F00FFF204801F0D0F9EFF3058314
:104F700063B12249224A1F48FD2301F0D7FF21488F
:104F800001F0D4FF1E48FD2101F0FCFE1E4CA2687A
:104F9000D27B012A0CD11D49194A1648FE2301F083
:104FA000C5FF184801F0C2FF1548FE2101F0EAFED6
:104FB000A268D37B013BD3730B4801F097F968B922
:104FC0000A4A13490B48AC2301F0B0FF06491148C7
:104FD00001F0ACFF0548AC2101F0D4FE85F3118847
:104FE000BFF36F8F38BD00BF1C0A0020E4800000B3
:104FF00036810000A37900004B810000AC880000DE
:10500000FA88000025890000EC09002028890000AA
:105010000A810000218100000C4B994210B50C461A
:105020000BD10B490B480C4A40F2E73301F07EFFED
:10503000094840F2E73101F0A5FED4E900321360DF
:105040005A600023C4E9003310BD00BFC80100202E
:105050007B890000A379000059890000836810B59E
:1050600004465BB90B490C480C4A40F2832301F01B
:105070005DFF0A4840F2832101F084FEA0682146CA
:10508000FFF7CAFF637B23F0020363730023A3606F
:1050900010BD00BF9C890000A37900005989000061
:1050A00038B502461448154D02F0AFF9044600B970
:1050B000EC68CAB9AB6863B91149124A124889232E
:1050C00001F034FF114801F031FF0E48892101F051
:1050D00059FEAB685A7BD20606D1A26922B9DA8999
:1050E0007F2A01D9EB6138BDAB68A34201D0FFF73D
:1050F0005FFEEC61F7E700BF0C0A0020EC0900201E
:10510000B389000059890000A379000025890000B7
:1051100070B590F90D20437B002A044606DA03F0AF
:105120007F03437301461F48FFF776FF637B63F0FD
:105130007F0363731C4B9C4209D11C491C481D4AC8
:10514000BA2301F0F3FE1B48BA2101F01BFE1A4AF4
:105150001146556A51F8203F8B4208BF0023002BAF
:1051600038BF0023CBB194F90E6093F90E0086424C
:105170000FD0801B00280CDD5968C4E900310C6099
:105180005C609068031B5842BDE870405841FFF7CF
:1051900087BFAB4201D01B68E4E7C4E900152C606F
:1051A0005462EEE70C0A0020C80100207B89000051
:1051B000A379000059890000EC09002070B504466D
:1051C0004FF02003EFF3118583F31288BFF36F8F45
:1051D0002A4801F07DF868B9294A2A492A488123DA
:1051E00001F0A4FE2549294801F0A0FE24488121B0
:1051F00001F0C8FD214801F089F8254B254A98683F
:1052000011688842194618D1FFF7D2FD1B4801F0FA
:105210006DF868B91A4A20491B48AC2301F086FE94
:1052200016491E4801F082FE1548AC2101F0AAFD86
:1052300085F31188BFF36F8F70BD00261660184A82
:105240001268BAB1C2897F2A14D8427BD20611D122
:10525000144A90F90E60126896420BDB124A904293
:1052600008D01A69A24202DCFFF752FFCCE7121BFA
:105270001A61CBE700230B61C8E700BF1C0A0020BE
:10528000E480000036810000A37900004B8100001B
:10529000EC090020180A00200A810000218100008A
:1052A000240A0020200A0020C801002070B590F9CF
:1052B0000D20437B002A04463EDBDA063CD185699B
:1052C000002D39D163F07F0343731C4B984209D101
:1052D0001B491C481C4ABA2301F028FE1A48BA216F
:1052E00001F050FD19490B4653F8200F984218BFA2
:1052F0000546002D1A462B464D6A38BF0023B3B130
:1053000094F90E6093F90E0086420CD0801B0028A1
:1053100009DD5A68C4E9003214605C60BDE8704081
:105320000020FFF7BDBEAB4201D01B68E7E7C4E930
:1053300000252C604C62F1E770BD00BFC801002061
:105340007B890000A379000059890000EC09002046
:1053500038B504464FF02003EFF3118583F312882C
:10536000BFF36F8F174800F0B3FF68B9164A1749AB
:105370001748812301F0DAFD1249164801F0D6FDE5
:105380001148812101F0FEFC0E4800F0BFFF2046CD
:10539000FFF78CFF0B4800F0A9FF68B90A4A0E49D5
:1053A0000B48AC2301F0C2FD06490C4801F0BEFDDC
:1053B0000548AC2101F0E6FC85F31188BFF36F8F3F
:1053C00038BD00BF1C0A0020E480000036810000C8
:1053D000A37900004B8100000A81000021810000B8
:1053E00038B504464FF02003EFF3118583F312889C
:1053F000BFF36F8F1D4800F06BFF68B91C4A1D4951
:105400001D48812301F092FD18491C4801F08EFDD2
:105410001748812101F0B6FC144800F077FF637B48
:105420005A0716D4114800F061FF68B9104A1449B0
:105430001148AC2301F07AFD0C49124801F076FDC9
:105440000B48AC2101F09EFC85F31188BFF36F8FF0
:1054500038BD23F0040320466373FFF727FF294676
:105460000248BDE83840FFF71FBD00BF1C0A0020FE
:10547000E480000036810000A37900004B81000029
:105480000A8100002181000070B504464FF020031E
:10549000EFF3118683F31288BFF36F8F204800F07B
:1054A00017FF68B91F4A20492048812301F03EFDBB
:1054B0001B491F4801F03AFD1A48812101F062FCA6
:1054C000174800F023FF14F80B3C13F0280F10D1FD
:1054D00054F8103CA4F1180513B12846FFF7BEFD9F
:1054E00014F80B3C23F0140304F80B3C2846FFF798
:1054F000DDFE0B4800F0FAFE68B90A4A0D490B4878
:10550000AC2301F013FD06490B4801F00FFD0548DF
:10551000AC2101F037FC86F31188BFF36F8F70BDAB
:105520001C0A0020E480000036810000A3790000FE
:105530004B8100000A8100002181000010B590F924
:105540000D20437B002A044606DA03F07F034373F1
:1055500001460648FFF760FD054B9868031B58425B
:10556000BDE810405841FFF79BBD00BF0C0A00206A
:10557000EC09002038B504460D46FFF7DFFF637BDA
:1055800043F0020363731DB3174BA5609C4209D11E
:1055900016491748174ABA2301F0C8FC1548BA2122
:1055A00001F0F0FB2B689D4208BF0023002B38BFA1
:1055B00000239BB194F90E1093F90E20914208D06C
:1055C000521A002A05DD5A68C4E9003214605C6092
:1055D00038BD6A68934201D01B68EAE76B68C4E98A
:1055E00000531C606C60F3E7C80100207B89000059
:1055F000A3790000598900002DE9F04104460D46C9
:1056000016461F464FF02003EFF3118883F31288EC
:10561000BFF36F8F1F4800F05BFE68B91E4A1F4939
:105620001F48812301F082FC1A491E4801F07EFCCC
:105630001948812101F0A6FB164800F067FE2046BC
:105640002946FFF797FF134800F050FE68B9124A49
:1056500015491348AC2301F069FC0E49134801F0C9
:1056600065FC0D48AC2101F08DFB88F31188BFF378
:105670006F8F7B1C08BFB6F1FF3F08D032463B4618
:1056800004F118000A49BDE8F04100F097BEBDE8FA
:10569000F08100BF1C0A0020E48000003681000079
:1056A000A37900004B8100000A81000021810000E5
:1056B0008954000038B5114B04469868104B0D46CC
:1056C00018601146DDE90423FFF796FF204600F03D
:1056D0000DFE68B90B4A0C490C48C32301F026FCA7
:1056E0000B48214601F022FC0648C32101F04AFB89
:1056F0002846BDE83840FCF7B9BB00BFEC090020E4
:10570000180A0020E48000000A810000A37900004C
:1057100021810000F8B504460E464FF02003EFF358
:10572000118783F31288BFF36F8F3C4800F0D0FDE0
:1057300068B93B4A3B493C48812301F0F7FB3749B4
:105740003A4801F0F3FB3648812101F01BFB334856
:1057500000F0DCFD637BDA0676B25CD1A569002D32
:1057600059D103F07F03637331482146FFF754FC9E
:10577000637BA67363F07F0363732E4B9C4209D156
:105780002D4929482D4ABA2301F0D0FB2B48BA21D4
:1057900001F0F8FA2A490B4653F8200F984218BF37
:1057A0000546002D1A462B464D6A38BF00236BB3C1
:1057B00094F90E6093F90E00864223D0801B0028D6
:1057C00020DD5A68C4E9003214605C600120FFF7F4
:1057D00067FC0124114800F089FD68B9104A194995
:1057E0001148AC2301F0A2FB0C49174801F09EFBC5
:1057F0000B48AC2101F0C6FA87F31188BFF36F8F15
:105800002046F8BDAB4201D01B68D0E7C4E90025B3
:105810002C604C62DAE7A6730024DBE71C0A002048
:10582000E480000036810000A37900004B81000075
:105830000C0A0020C80100207B8900005989000063
:10584000EC0900200A8100002181000070B50446A7
:10585000183000F087FE4FF02003EFF3118683F33A
:105860001288BFF36F8F254800F032FD68B9244AD3
:1058700024492548812301F059FB2049234801F0A0
:1058800055FB1F48812101F07DFA1C4800F03EFDC8
:1058900094F90D20637B002A06DA03F07F031C488D
:1058A00063732146FFF7B8FB1A4D637BA86843F08A
:1058B00010036373031B58425841FFF7F1FB0F4875
:1058C00000F014FD68B90E4A13490F48AC2301F0EB
:1058D0002DFB0A49114801F029FB0948AC2101F0D0
:1058E00051FA86F31188BFF36F8FAB68A34203D1DF
:1058F000BDE8704001F07FBD70BD00BF1C0A0020F4
:10590000E480000036810000A37900004B81000094
:105910000C0A0020EC0900200A810000218100000F
:1059200038B54FF02003EFF3118583F31288BFF3EE
:105930006F8F2D4800F0CCFC68B92C4A2C492D48BB
:10594000812301F0F3FA28492B4801F0EFFA2748A8
:10595000812101F017FA294C234800F0D7FCA268F6
:10596000D27B72B92649274A224840F2853301F09A
:10597000DDFA254801F0DAFA224840F2853101F0DB
:1059800001FAEFF3058373B120491E4A194840F22A
:10599000863301F0CBFA1C4801F0C8FA194840F2EE
:1059A000863101F0EFF9A268D37B01330020D37375
:1059B000FFF776FB0C4800F099FC68B90B4A1449D4
:1059C0000C48AC2301F0B2FA0749124801F0AEFAD4
:1059D0000648AC2101F0D6F985F31188BFF36F8F2B
:1059E000BDE8384001F007BD1C0A0020E48000003B
:1059F00036810000A37900004B810000EC090020F3
:105A0000DA8900005989000025890000AC8800006F
:105A10000A8100002181000038B504464FF02003C0
:105A2000EFF3118583F31288BFF36F8F1B4800F0EB
:105A30004FFC68B91A4A1B491B48812301F076FACA
:105A400016491A4801F072FA1548812101F09AF9B5
:105A5000124800F05BFC204601F0D7FC044628B158
:105A6000FFF7FCFA04F1180000F07CFD0B4800F091
:105A70003DFC68B90A4A0E490B48AC2301F056FABE
:105A800006490C4801F052FA0548AC2101F07AF9B8
:105A900085F31188BFF36F8F204638BD1C0A0020A4
:105AA000E480000036810000A37900004B810000F3
:105AB0000A81000021810000044B002103F1200233
:105AC000C3E908220846FFF789B900BFEC090020A6
:105AD000F8B5EFF3058373B14149424A424840F2B9
